:020000040800F2
:10000000000003202D0500087F0500088105000879
:10001000830500088505000887050008000000002A
:10002000000000000000000000000000912E000809
:100030008905000800000000312F00088B0500082A
:100040007D0500087D0500087D0500087D05000888
:100050007D0500087D0500087D0500087D05000878
:100060007D0500087D0500087D0500087D05000868
:10007000950500087D0500087D0500087D05000840
:100080007D0500087D0500087D0500087D05000848
:10009000A50500087D0500087D0500087D05000810
:1000A0007D050008B50500087D0500087D050008F0
:1000B000C50500087D0500087D0500087D050008D0
:1000C0007D0500087D0500087D0500087D05000808
:1000D0007D050008D50500087D050008E505000838
:1000E0007D0500087D0500087D0500087D050008E8
:1000F0007D0500087D0500087D0500087D050008D8
:100100007D0500087D0500087D0500087D050008C7
:10011000F5050008050600087D0500087D050008B6
:100120007D0500087D050008150600087D0500080E
:100130007D0500087D0500087D0500087D05000897
:100140007D0500087D0500087D0500087D05000887
:100150007D0500087D0500087D05000825060008CE
:100160007D0500087D0500087D0500087D05000867
:100170007D0500087D0500087D05000800000000E1
:100180007D0500087D050008350600087D0500088E
:100190007D0500087D0500087D0500087D05000837
:0C01A00000000000000000007D050008C9
:1001B00010B5054C237833B9044B13B10448AFF3A1
:1001C00000800123237010BD1400002000000000F7
:1001D000A85F00080C4B43B10C480D4910B5AFF3B4
:1001E00000800C48036823B910BD0A48036833B97E
:1001F0007047094B002BF7D0BDE810401847064B5D
:10020000002BF5D0184700BF00000000A85F0008D1
:1002100018000020140000200000000053B94AB963
:10022000002908BF00281CBF4FF0FF314FF0FF30FE
:1002300000F07AB9ADF1080C6DE904CE00F006F8D3
:10024000DDF804E0DDE9022304B070472DE9F04752
:100250008C460D460446089E002B51D18A42174613
:100260006DD9B2FA82FEBEF1000F0BD0CEF1200C98
:1002700001FA0EF520FA0CFC02FA0EF74CEA050C16
:1002800000FA0EF44FEA174A250CBCFBFAF81FFAE5
:1002900087F90AFB18CC45EA0C4508FB09F3AB4289
:1002A0000AD9ED1908F1FF3280F02381AB4240F208
:1002B0002081A8F102083D44ED1AA4B2B5FBFAF082
:1002C0000AFB105544EA054400FB09F9A14509D988
:1002D000E41900F1FF3380F00A81A14540F2078163
:1002E00002383C44A4EB090440EA08400021002EF7
:1002F00061D024FA0EF4002334607360BDE8F08707
:100300008B4207D9002E54D0002186E821000846F0
:10031000BDE8F087B3FA83F1002940F08E80AB424C
:1003200002D3824200F2FA80841A65EB03050120B1
:10033000AC46002E3FD086E81010BDE8F08712B919
:100340000127B7FBF2F7B7FA87FEBEF1000F34D1F1
:10035000EB1B3A0C1FFA87FC0121B3FBF2F8250CCA
:1003600002FB183345EA03450CFB08F3AB4207D9FF
:10037000ED1908F1FF3002D2AB4200F2D180804685
:10038000ED1AA3B2B5FBF2F002FB105543EA0544A7
:100390000CFB00FCA44507D9E41900F1FF3302D29D
:1003A000A44500F2B8801846A4EB0C0440EA0840CB
:1003B0009DE731463046BDE8F087CEF1200405FACE
:1003C0000EF307FA0EF720FA04F83A0C25FA04F4B3
:1003D00048EA0308B4FBF2F14FEA184502FB114466
:1003E0001FFA87FC45EA044501FB0CF3AB4200FA17
:1003F0000EF409D9ED1901F1FF3080F08A80AB428B
:1004000040F2878002393D44EB1A1FFA88F5B3FBAE
:10041000F2F002FB103345EA034500FB0CF3AB425C
:1004200007D9ED1900F1FF386FD2AB426DD9023810
:100430003D44EB1A40EA01418FE7C1F1200722FA5F
:1004400007F88B4005FA01F448EA030320FA07FE97
:100450004FEA134CFD404EEA040EB5FBFCF94FEA9F
:100460001E440CFB19551FFA83F844EA054509FBA5
:1004700008F4AC4202FA01F200FA01FA08D9ED18C8
:1004800009F1FF3043D2AC4241D9A9F102091D4420
:100490002D1B1FFA8EFEB5FBFCF00CFB10554EEA2F
:1004A000054400FB08F8A04507D9E41800F1FF3522
:1004B00029D2A04527D902381C4440EA0940A4EBC0
:1004C0000804A0FB02894C45C6464D4615D312D000
:1004D00056B1BAEB0E0364EB050404FA07F7CB4000
:1004E0001F43CC40376074600021BDE8F087184698
:1004F000F8E69046E0E6C245EAD2B8EB020E69EBB8
:1005000003050138E4E72846D7E7404691E78146EE
:10051000BEE7014678E702383C4445E7084608E76D
:10052000A8F102083D442BE7704700BFDFF834D044
:10053000002103E00C4B5B58435004310B480C4B3B
:1005400042189A42F6D30B4A02E0002342F8043BD9
:10055000094B9A42F9D303F08FF805F0F5FC03F04C
:1005600015F8704700000320B46300080000002065
:1005700014000020140000202CCD0020FEE770475E
:10058000FEE7FEE7FEE7FEE7704708B501F078FFFB
:1005900008BD000008B5024800F0BAFF08BD00BF62
:1005A0007046002008B5024800F06AFD08BD00BF93
:1005B0007445002008B5024801F067F908BD00BF86
:1005C000F445002008B5024801F05FF908BD00BFFE
:1005D000B845002008B5024803F00EFC08BD00BF76
:1005E000B047002008B5024803F006FC08BD00BF74
:1005F000D046002008B5024801F010FE08BD00BF3B
:100600003048002008B5024801F008FE08BD00BFD0
:100610001047002008B5024800F07AFF08BD00BF6F
:100620005047002008B5024801F0F8FD08BD00BFA2
:10063000F047002008B5024801F0F0FD08BD00BFFA
:10064000304600207047000030B40C46184B18703C
:10065000013803280CD8DFE800F0020D1721154DF2
:1006600008684968A268E3680FC52069616903C525
:1006700030BC7047104D08684968A268E3680FC530
:100680002069616903C5F3E70C4D08684968A268F1
:10069000E3680FC52069616903C5E9E7084D08688B
:1006A0004968A268E3680FC52069616903C5DFE78F
:1006B0008C4400202C440020444400205C44002052
:1006C000744400200C4B18700138032812D8DFE85E
:1006D00000F002060A0E0A88084B1A8070470A8842
:1006E000064B5A8070470A88044B9A8070470A88E4
:1006F000024BDA80704700BF9844002090440020ED
:100700000C4B18700138032812D8DFE800F00206FD
:100710000A0E0A68084B1A6070470A68064B5A604E
:1007200070470A68044B9A6070470A68024BDA60A7
:10073000704700BFAC4400209C4400200C4B187054
:100740000138032812D8DFE800F002060A0E0A88F2
:10075000084B1A8070470A88064B5A8070470A88EF
:10076000044B9A8070470A88024BDA80704700BFBA
:10077000B0440020B44400200A4B1870012800D077
:100780007047F0B40C46084F01F130063D46206832
:100790006168A268E3680FC510342F46B442F5D1F2
:1007A000F0BCEDE7BC440020C04400200C4B1870A6
:1007B0000138032812D8DFE800F002060A0E0A8882
:1007C000084B1A8070470A88064B5A8070470A887F
:1007D000044B9A8070470A88024BDA80704700BF4A
:1007E000F0440020F44400200C4B1870013803281A
:1007F00012D8DFE800F002060A0E0A88084B1A80B9
:1008000070470A88064B5A8070470A88044B9A80C2
:1008100070470A88024BDA80704700BF0445002009
:10082000FC4400200C4B18700138032812D8DFE874
:1008300000F002060A0E0A68084B1A6070470A6840
:10084000064B5A6070470A68044B9A6070470A6802
:10085000024BDA60704700BF1845002008450020B1
:10086000634B1B6813B1624A1A441071A62806D064
:10087000132B1AD05E4A13680133136070475C4B28
:10088000A6221A7101221A60704759491944097940
:100890000A44D2B20133122BF7DD554BDB7D9A426D
:1008A00006D00022524B1A60E4E700231A46F2E712
:1008B00030B44F4D6879AA7940EA0220C0F30A00AB
:1008C000A0F5806080B24B4C2080EB79D10841EAE2
:1008D0004311C1F30A01A1F5806189B261802A7ACE
:1008E0009B0943EA82036A7A43EA8223C3F30A0339
:1008F000A3F580639BB2A380AD7A520842EAC51289
:10090000C2F30A02A2F5806292B2E280053080B2A0
:100910000A2803D82046002404704470053189B2A7
:100920000A2903D8334900208870C870053399B26A
:100930000A2903D82F4B002119715971053292B23F
:100940000A2A03D82B4B00229A71DA712B099908D5
:10095000284A117203F003035372B2F90030002BDE
:10096000B8BF5B42B3F5257F39DCB2F90230002B0A
:10097000B8BF5B42B3F5257F31DCB2F90430002B00
:10098000B8BF5B42B3F5257F29DCB2F90630002BF6
:10099000B8BF5B42B3F5257F21DC154BD97A187BB4
:1009A000144A41EA00215181597B987B41EA002198
:1009B0009181D97B187C41EA0021D181597C117445
:1009C000997C5174D97C1B7D41EA03235382002218
:1009D000074B1A60064A13680133136006E0054BA3
:1009E00000221A605A609A60DA601A6130BC70475F
:1009F000300000201C450020704770477047000001
:100A000030B4194B1870013803280CD8DFE800F017
:100A1000020D1721154B0D684C688868CA681D6067
:100A20005C609860DA6030BC7047114B0D684C68B0
:100A30008868CA681D605C609860DA60F3E70D4BF7
:100A40000D684C688868CA681D605C609860DA60F0
:100A5000E9E7094B0D684C688868CA681D605C60EE
:100A60009860DA60DFE700BF704500203045002065
:100A700040450020504500206045002008B5142066
:100A800002F00CFDFBE708B54FF4967002F006FD8E
:100A9000FAE7000070B58AB00D4C05AD26460FCEC2
:100AA0000FC533682B60002105A801F060FC094BDD
:100AB00018606D4614340FCC0FC523682B600021DD
:100AC000684601F054FC044B18600AB070BD00BFCA
:100AD000C05F0008A0450020AC450020002800F0C1
:100AE000A18038B5044690F82030D3B1226813684D
:100AF00023F00203136004F0EDF8054623685A68FA
:100B000012F0020F10D004F0E5F8401B0A28F5D9C6
:100B1000636A43F400336362052384F820300120C4
:100B200038BD02F03FFCE1E71A6842F001021A60AA
:100B300004F0D0F8054623685A6812F0010F0DD171
:100B400004F0C8F8401B0A28F5D9636A43F400335F
:100B50006362052384F82030012038BD227E012AFB
:100B60003DD01A6822F080021A60637E012B3BD0D0
:100B70002268136823F040031360A37E012B39D051
:100B80002268136823F020031360E37E012B37D023
:100B90002268136843F010031360237F012B35D0C4
:100BA0002268136823F008031360637F012B33D09E
:100BB0002268136823F0040313602168A368E268C5
:100BC000134322691343626913436268013A134372
:100BD000CB6100206062012384F8203038BD1A68A0
:100BE00042F080021A60C0E72268136843F04003B5
:100BF0001360C2E72268136843F020031360C4E760
:100C00002268136823F010031360C6E72268136894
:100C100043F008031360C8E72268136843F0040335
:100C20001360CAE70120704790F82030DBB2012B37
:100C30000AD090F82030DBB2022B05D0436A43F48F
:100C4000802343620120704770B4424BD3F80022E6
:100C500042F00102C3F80022D3F8002222F47C52B1
:100C6000C3F80022D3F80022486A42EA0022C3F8FF
:100C700000224A69012000FA02F2D3F81C42D04354
:100C80000440C3F81C42CB69B3B9324BD3F80C42D1
:100C90000440C3F80C424C69CE688D8845EA06458D
:100CA000483443F834504D698E680C8844EA064451
:100CB000483503EBC5035C60CB69012B1DD08B6904
:100CC000002B32D1234CD4F804320340C4F8043250
:100CD0000B698BBB1F4BD3F814422040C3F814029E
:100CE0000B6A012B2FD01B4AD2F8003223F00103EC
:100CF000C2F80032002070BC7047164BD3F80C428B
:100D00001443C3F80C424C690E688D8845EA0645C9
:100D1000483443F834504D698E688C8944EA06445F
:100D2000483503EBC5035C60C9E70A4CD4F80432CC
:100D30001343C4F80432CBE70648D0F81432134307
:100D4000C0F81432CCE7034BD3F81C120A43C3F8A3
:100D50001C22C8E70064004038B590F82030DBB2B0
:100D6000012B05D0436A43F400234362012038BDC0
:100D70000446022380F820300268136823F0010340
:100D8000136003F0A7FF054623685B6813F0010FAB
:100D90000DD003F09FFF401B0A28F5D9636A43F486
:100DA00000336362052384F82030012038BD002021
:100DB000606238BD70B490F82040E4B2012C0BD0D2
:100DC00090F82040E4B2022C06D0436A43F480231A
:100DD0004362012070BC70470468A56815F0806FFD
:100DE00007D1A56815F0006F03D1A56815F0805FE5
:100DF00054D0A468C4F301640125A5401D608B682C
:100E0000002B38D105680E68CB6843EA465604F1DA
:100E100018031B01EE5003680D6904F1180603EB7B
:100E200006135D600B7D012B30D00568D179937975
:100E30001B0443EA0163517943EA012311790B430F
:100E400026013544C5F88C310168D57893781B04A8
:100E500043EA0563557843EA052312781343314486
:100E6000C1F88831026818342401135943F0010392
:100E700013510020AEE705684E6843EAC603CE680A
:100E8000334304F118063601AB51C4E7036803EBA2
:100E90000613596841F480715960C6E7436A43F408
:100EA00000134362012095E790F82030DBB2012B5C
:100EB0000AD090F82030DBB2022B05D0436A43F40D
:100EC000802343620120704711F0010F04D00268B3
:100ED000936843F08003936011F0020F04D002681E
:100EE000936843F40043936011F0040F06D0026846
:100EF000936843F40003936000207047002070471C
:100F000090F82030DBB2012B06D090F82030DBB215
:100F1000022B01D00020704703689B68890631EAE4
:100F2000030301D0012070470020704730B490F8CF
:100F30002040E4B2012C0BD090F82040E4B2022C07
:100F400006D0436A43F480234362012030BC7047DB
:100F500051B90468E46814F0030F07D1436A43F4FD
:100F6000001343620120F1E701295DD0056801F11A
:100F70001B0424012C5904F004049460002C5ED15D
:100F8000056801F11B0424012C59640D14600568E7
:100F900001F11B0424012D59C5F34005D5600568F6
:100FA00025446D6805F00F051561056825446D68D9
:100FB000C5F30725956105682C446468240C5461C9
:100FC00004680A011444D4F8B8411C70046814443D
:100FD000D4F8B841240A5C7004681444D4F8B841C9
:100FE000240C9C7004681444D4F8B841240EDC70BE
:100FF00004681444D4F8BC411C7104681444D4F847
:10100000BC41240A5C7104681444D4F8BC41240C2B
:101010009C7104682244D2F8BC21120EDA71B1B17D
:1010200001291BD0002091E70468246914F0030F04
:101030009CD1436A43F400134362012086E70568AC
:1010400001F11B0424012C59E40854609FE7026855
:10105000D36843F02003D360002077E70268136968
:1010600043F020031361002070E77047704770471A
:1010700070477047704770477047704770477047B8
:101080002DE9F84F054603685C695F689E68D3F8F0
:101090000C90D3F81080D3F818A014F0010F5AD098
:1010A00016F0010F17D001229A6016F0020F08D136
:1010B00016F0040F30D116F0080F07D04FF4805B04
:1010C0000BE0FFF7D2FF4FF0000B06E0FFF7D0FF79
:1010D0004FF0000B01E04FF0000B16F4807F0BD0B7
:1010E0002B684FF480729A6016F4007F17D116F4C3
:1010F000806F18D04BF4005B16F4803F2DD02B6826
:101100004FF480329A6016F4003F16D116F4802F07
:1011100017D04BF4004B20E04FF4006BDDE728467E
:10112000FFF7A4FFE8E716F4006F02D04BF4804B02
:10113000E2E72846FFF79DFFDEE72846FFF797FF27
:101140000BE016F4002F02D04BF4803B05E028465C
:10115000FFF790FF01E04FF0000B14F0080F07D0ED
:1011600019F0100F04D04BF4007B2B681022DA60CA
:1011700014F0040F02D019F0080F60D114F0020F20
:1011800004D02B68DB6813F0030F5FD114F0400F1D
:1011900007D018F0100F04D04BF4806B2B6810228E
:1011A0001A6114F0200F02D018F0080F52D114F079
:1011B000100F04D02B681B6913F0030F51D114F4E6
:1011C000003F02D017F0100F4FD114F4803F02D02F
:1011D00017F0080F50D114F4004F67D017F0040F28
:1011E00061D014F4807F04D01AF0010F01D04BF0CD
:1011F000010B14F4007F04D01AF0020F01D04BF061
:10120000020B14F4806F04D01AF0040F01D04BF0DD
:10121000040B14F4006F46D01AF0700A43D0BAF1F0
:10122000300F48D02FD9BAF1500F47D0BAF1600F24
:1012300047D0BAF1400F31D14BF0400B2EE02B6874
:101240000822DA602846FFF716FF97E7284602F0E3
:10125000CFFC9BE72B6808221A612846FFF70DFF99
:10126000A5E72846FFF708FFA9E72B6810225A6078
:101270002846FFF703FFA8E72B6808225A60284694
:10128000FFF7FDFEA7E7BAF1100F05D0BAF1200F66
:1012900004D14BF0100B01E04BF0080B2A68936966
:1012A00023F0700393612B6804225A60BBF1000F96
:1012B0000AD1BDE8F88F4BF0200BEFE74BF0800B25
:1012C000ECE74BF4807BE9E76B6A4BEA03036B6264
:1012D000284602F0B3FCECE730B405682C6824F42F
:1012E00080242C60046863608368402B05D0036809
:1012F00099600368DA6030BC704703689A600368DD
:10130000D960F8E70268D3B2103B0B49A1FB031385
:101310001B090A49C95CC165032B06D822F47F72F8
:1013200022F003028265806D704722F47F7222F002
:10133000030204328265F6E7ABAAAAAAE85F0008B6
:10134000836A826992B9012B0AD01BB1022B01D0AA
:1013500000207047C36A13F0807F2CD100207047B3
:10136000C36AB3F1C07F28D000207047B2F5005F98
:1013700005D0022B29D9032B15D000207047032B51
:1013800003D8DFE803F01C041C0A00207047C36A7E
:1013900013F0807F15D100207047C36AB3F1C07F7E
:1013A00011D000207047C36A13F0807F01D0012064
:1013B00070470020704701207047012070470120CE
:1013C00070470120704701207047012070470000DE
:1013D00070B5044603F07EFC002C5DD0054600236A
:1013E00084F83430022384F835302268136823F0FF
:1013F0000103136023681A6812F0010F0AD003F08A
:1014000069FC401B0528F5D920236365032084F877
:10141000350070BD1A68214911406268A068024316
:10142000E06802432069024360690243A069024305
:10143000E0690243206A02430A43616A042916D024
:101440001A602668756925F00705636A1D43042B39
:1014500012D075612046FFF755FFE26D3F239340A0
:10146000836000206065012384F8353070BDE16A37
:10147000206B01430A43E3E7A36A1D43E36A002BA1
:10148000E7D02046FFF75CFF0028E2D040236365E9
:10149000012084F8350070BD012070BD3F8010F040
:1014A00038B590F83440012C1CD0012480F8344029
:1014B00090F83540E4B2012C04D0002380F8343099
:1014C000022038BD0546022085F8350000246C65F1
:1014D0002846FFF701FF2A68136843F001031360F1
:1014E000204638BD022038BD90F83530DBB2022BE3
:1014F00003D08023436501207047052380F83530F1
:101500000268136823F00103136000207047000095
:10151000F0B583B0044600230193724B1D68724BF3
:10152000A3FB0535AD0A876D3E68C26D0823934065
:101530001E4210D003681A6812F0040F0BD01A680C
:1015400022F004021A60C26D08239340BB60436D11
:1015500043F001034365E26D012393401E4209D02D
:101560002268526912F0800F04D0BB60636D43F0B3
:1015700002036365E26D042393401E4209D0226892
:10158000126812F0020F04D0BB60636D43F00403D5
:101590006365E26D102393401E4224D022681268D6
:1015A00012F0080F1FD0BB6023681A6812F4802F56
:1015B0000DD01B6813F4002F04D1236C9BB120467F
:1015C000984710E0A36C73B1204698470BE01A6867
:1015D00012F4807F03D11A6822F008021A60236C8B
:1015E0000BB120469847E26D202393401E4255D010
:1015F0002268126812F0100F50D0BB6094F835309A
:10160000DBB2052B0ED023681A6812F4802F33D07A
:101610001B6813F4002F2AD1636C002B3ED02046A8
:1016200098473BE02268136823F016031360226892
:10163000536923F080035361236CA3B122681368BC
:1016400023F008031360E26D3F239340BB60002347
:1016500084F83430012384F83530236D002B3FD0DB
:10166000204698473CE0A36C002BE7D1EBE7E36B07
:10167000A3B12046984711E01A6812F4807F09D17F
:101680001A6822F010021A60002384F83430012313
:1016900084F83530E36B0BB120469847636DFBB19E
:1016A000636D13F0010F17D0052384F835302268DD
:1016B000136823F001031360019B013301939D42E2
:1016C00004D323681B6813F0010FF5D1002384F8BD
:1016D0003430012384F83530E36C0BB12046984751
:1016E00003B0F0BD04000020B5814E1B10B4036AA6
:1016F000046A24F001040462846924F0F00444EADA
:10170000021223F00A030B43826103625DF8044B6B
:10171000704710B4036A23F0100303628469036AFC
:1017200024F4704444EA023223F0A00343EA011394
:10173000826103625DF8044B7047836823F0700395
:1017400041F007010B438360704710B4846824F4B0
:101750007F4442EA032319430C4384605DF8044B41
:1017600070470268D36843F00103D36002681368CE
:1017700043F0010313600020704790F83830012BCC
:101780007DD010B50446012380F83830022380F85C
:1017900039300268936823F47F4323F07703936022
:1017A0000B68402B57D010D9702B3ED01FD8502B30
:1017B00047D0602B32D1CA6849680068FFF7A9FF9B
:1017C00060212068FFF7B9FF28E0102B4DD008D921
:1017D000202B4FD0302B21D130210068FFF7ADFFF7
:1017E0001CE0DBB900210068FFF7A7FF16E0B3F5A6
:1017F000805F0ED0B3F5005F10D1CB684A6889686E
:101800000068FFF7A2FF2268936843F48043936067
:1018100004E00268936823F007039360012384F8CF
:101820003930002084F8380010BDCB684A688968D8
:101830000068FFF78AFF2268936843F0770393609C
:10184000ECE7CA6849680068FFF750FF502120683C
:10185000FFF773FFE2E7CA6849680068FFF746FFD1
:1018600040212068FFF769FFD8E710210068FFF7E3
:1018700064FFD3E720210068FFF75FFFCEE7022077
:101880007047704770477047704710B5044603684B
:101890001A6912F0020F11D0DA6812F0020F0DD09F
:1018A0006FF002021A610123037603689B6913F04B
:1018B000030F70D0FFF7E6FF0023237623681A6931
:1018C00012F0040F12D0DA6812F0040F0ED06FF08D
:1018D00004021A610223237623689B6913F4407F74
:1018E0005FD02046FFF7CEFF0023237623681A69D6
:1018F00012F0080F12D0DA6812F0080F0ED06FF055
:1019000008021A61042323762368DB6913F0030FAE
:101910004ED02046FFF7B6FF0023237623681A69CE
:1019200012F0100F12D0DA6812F0100F0ED06FF014
:1019300010021A61082323762368DB6913F4407FC1
:101940003DD02046FFF79EFF0023237623681A69C7
:1019500012F0010F03D0DA6812F0010F36D12368BC
:101960001A6912F0800F03D0DA6812F0800F34D1B8
:1019700023681A6912F0400F03D0DA6812F0400FA2
:1019800032D123681A6912F0200F03D0DA6812F0FE
:10199000200F30D110BDFFF774FF2046FFF773FF13
:1019A0008AE72046FFF76DFF2046FFF76CFF9BE7B5
:1019B0002046FFF766FF2046FFF765FFACE72046AD
:1019C000FFF75FFF2046FFF75EFFBDE76FF0010204
:1019D0001A61204601F066FDC1E76FF080021A61CE
:1019E000204600F0E0F8C3E76FF040021A6120469D
:1019F000FFF74AFFC5E76FF020021A61204600F0AA
:101A0000D1F8C7E70368454A90424AD0B0F1804F09
:101A100049D0A2F57C42904247D002F580629042C4
:101A200045D002F58062904243D002F57842904260
:101A300035D000221AB123F070034A681343374AA5
:101A400090423AD0B0F1804F50D0A2F57C42904203
:101A50004ED002F5806290424CD002F580629042F6
:101A60004AD002F57842904248D002F57052904236
:101A700046D002F58062904244D002F580629042E6
:101A800042D0A2F59832904240D002F58062904256
:101A90003ED002F5806290420DD000220EE001227D
:101AA000C8E70122C6E70122C4E70122C2E70122FA
:101AB000C0E70122BEE7012200E001221AB123F4AF
:101AC0004073CA68134303608B68C3620B68836208
:101AD000124B984220D003F5806398421AD000231D
:101AE0000BB10B6903630123436170470122E5E7F2
:101AF0000122E3E70122E1E70122DFE70122DDE73E
:101B00000122DBE70122D9E70122D7E70122D5E74D
:101B10000122D3E70123E3E70123E1E700000140CD
:101B2000A8B110B5044690F839305BB1022384F8AF
:101B30003930211D2068FFF765FF012384F8393013
:101B4000002010BD80F8383001F0F6FDEEE70120EE
:101B5000704790F83830012B22D030B4012280F841
:101B60003820022380F839300468636823F070035A
:101B70006360046863680D682B4363600468A3684E
:101B800023F08003A3600468A36849680B43A36043
:101B900080F83920002380F83830184630BC704770
:101BA00002207047704770470268D36823F490732F
:101BB000D3600268536923F001035361202380F846
:101BC0003A30704790F83930DBB2212B01D0022037
:101BD00070478368B3F5805F17D00268036A591CA9
:101BE00001621B785360C38C9BB2013B9BB2C384E0
:101BF000DBB90268D36823F08003D3600268D3683E
:101C000043F04003D36000207047036A02681B88DA
:101C1000C3F30803536003691BB9036A0233036209
:101C2000E1E7036A01330362DDE70020704700004B
:101C30002DE9F04704460268136923F44053C16854
:101C40000B4313610168CB6823F4164323F00C03A4
:101C500082680069024360690243E06902431343FA
:101C6000CB602268536923F44073A1690B4353612D
:101C7000E369B3F5004F62D0D4F80080BB4B9845C0
:101C800000F01B8103F58063984500F0168103F096
:101C9000B9FC00EB800000EB80006568AD00B0FB94
:101CA000F5F5B34FA7FB05356D092E0103F0AAFC2E
:101CB00000EB800000EB80006568AD00B0FBF5FA3A
:101CC00003F0A0FC00EB800000EB80006568AD0035
:101CD000B0FBF5F5A7FB05356D094FF0640909FB6D
:101CE00015A52D013235A7FB05356D0905F0F00569
:101CF000354403F087FC00EB800000EB8000666851
:101D0000B600B0FBF6F603F07DFC00EB800000EBC4
:101D1000800063689B00B0FBF3F0A7FB0030400934
:101D200009FB10694FEA091909F13209A7FB0937C4
:101D3000C7F343172F44C8F80870BDE8F087D4F8FC
:101D4000008003F1804303F5104398455CD003F510
:101D50008063984558D003F055FC00EB800000EB01
:101D6000800065686D00B0FBF5F5814FA7FB053578
:101D70006D092E0103F046FC00EB800000EB8000B3
:101D800065686D00B0FBF5FA03F03CFC00EB8000E9
:101D900000EB800065686D00B0FBF5F5A7FB05352D
:101DA0006D094FF0640909FB15A5ED003235A7FB5D
:101DB00005356D096D0005F4F875354403F022FC16
:101DC00000EB800000EB800066687600B0FBF6F662
:101DD00003F018FC00EB800000EB800063685B0000
:101DE000B0FBF3F3A7FB03235B0909FB13694FEA7D
:101DF000C90909F13209A7FB0937C7F342172F4474
:101E0000C8F80870BDE8F08703F00CFC00EB800018
:101E100000EB800065686D00B0FBF5F5544FA7FB43
:101E200005356D092E0103F0FDFB00EB800000EB92
:101E3000800065686D00B0FBF5FA03F0F3FB00EB82
:101E4000800000EB800065686D00B0FBF5F5A7FB36
:101E500005356D094FF0640909FB15A5ED00323514
:101E6000A7FB05356D096D0005F4F875354403F0E1
:101E7000D9FB00EB800000EB800066687600B0FBC9
:101E8000F6F603F0CFFB00EB800000EB8000636808
:101E90005B00B0FBF3F3A7FB03235B0909FB1369AA
:101EA0004FEAC90909F13209A7FB0937C7F34217FD
:101EB0002F44C8F80870BDE8F08703F0B3FB00EBCF
:101EC000800000EB80006568AD00B0FBF5F5284FA1
:101ED000A7FB05356D092E0103F0A4FB00EB800084
:101EE00000EB80006568AD00B0FBF5FA03F09AFBEB
:101EF00000EB800000EB80006568AD00B0FBF5F5FD
:101F0000A7FB05356D094FF0640909FB15A52D01E7
:101F10003235A7FB05356D0905F0F005354403F0B2
:101F200081FB00EB800000EB80006668B600B0FB30
:101F3000F6F603F077FB00EB800000EB80006368AF
:101F40009B00B0FBF3F3A7FB03235B0909FB1369B9
:101F50004FEA091909F13209A7FB0937C7F34317FB
:101F60002F44C8F80870BDE8F08700BF001001409A
:101F70001F85EB512DE9F04105460F461646984660
:101F8000069C2B681B6837EA03030CBF0123002360
:101F9000B3421ED1B4F1FF3FF3D02CB102F09AFE50
:101FA000A0EB08008442ECD22A68D36823F4D073F3
:101FB000D3602A68536923F001035361202385F815
:101FC000393085F83A30002385F838300320BDE8F1
:101FD000F0810020BDE8F08158B310B5044690F8B8
:101FE00039300BB3242384F839302268D36823F4C2
:101FF0000053D3602046FFF71BFE2268136923F4C9
:10200000904313612268536923F02A0353612268C5
:10201000D36843F40053D3600020E063202384F8A6
:10202000393084F83A3010BD80F8383001F05CFC6B
:10203000D8E7012070472DE9F04182B01E4690F8A4
:102040003930DBB2202B04D00223184602B0BDE8A1
:10205000F08104460D469046002955D0002A55D0FF
:1020600090F83830012B01D10223EEE7012380F8EC
:1020700038300023C363212380F8393002F02AFE70
:102080000746A4F82480A4F8268010E000963B467A
:10209000002280212046FFF76DFF002838D12268FA
:1020A0002B88C3F3080353602369CBB90235E38C53
:1020B0009BB2BBB1E38C9BB2013B9BB2E384A368B0
:1020C000B3F5805FE2D000963B4600228021204697
:1020D000FFF750FFF0B923682A785A600135E6E728
:1020E0000135E4E700963B46002240212046FFF7F9
:1020F00041FF034608B10323A7E7202284F83920D3
:10210000002284F83820A0E701239EE701239CE702
:1021100003239AE7032398E790F83A30DBB2202BA9
:1021200001D002207047D1B1DAB190F83830012BDC
:1021300019D081628285C2850023C363222280F880
:102140003A2080F8383001684A6942F001024A6159
:102150000168CA6842F49072CA601846704701204C
:1021600070470120704702207047704708B501682A
:10217000CB6823F04003CB60202380F83930FFF791
:10218000F4FF002008BD08B590F83A30DBB2222BEE
:1021900001D0022008BD8368B3F5805F0FD00369CA
:1021A0000BBB836A5A1C8262026852681A70C38D24
:1021B0009BB2013B9BB2C385F3B1002008BD826A8C
:1021C000036943B903685B68C3F308031380836A38
:1021D00002338362EBE703685B68DBB21380836AD8
:1021E00001338362E3E7826A531C836203685B689E
:1021F00003F07F031370DAE70268D36823F4907367
:10220000D3600268536923F001035361202380F8EF
:102210003A3001F09DFE002008BD704710B504461D
:1022200002681368D168526913F00F0005D113F0EA
:10223000200F02D011F0200F53D1002867D012F0E8
:10224000010202D111F4907F61D013F0010F06D08A
:1022500011F4807F03D0E06B40F00100E06313F0E5
:10226000040F04D01AB1E06B40F00200E06313F0F9
:10227000020F04D01AB1E06B40F00400E06313F0E9
:10228000080F04D01AB1E26B42F00802E263E26B7D
:10229000002A48D013F0200F02D011F0200F24D1D3
:1022A00023685B6903F04003E26B12F0080F00D172
:1022B0003BB32046FFF778FC23685A6912F0400FC1
:1022C0001BD05A6922F040025A61636B8BB11A4AE3
:1022D0001A65606BFFF708F928B3606B036D9847C8
:1022E00010BD2046FFF74FFF10BD2046FFF74BFF04
:1022F000D6E72046FFF791FF10BD2046FFF78DFF80
:1023000010BD2046FFF789FF0023E36310BD13F0E3
:10231000800F02D011F0800F06D113F0400F02D0D1
:1023200011F0400F04D110BD2046FFF74BFC10BD4B
:102330002046FFF71BFFF6E73D23000808B5806B3A
:102340000023C385C384FFF768FF08BD842801D03C
:102350000330704700207047EFF30580003018BF4E
:102360000120704708B500F0EBF9002008BDF0B57A
:1023700085B00F46446805680669B0F90800FFF7A4
:10238000E5FF03AB019300903B46B2B229462046DD
:1023900000F0A4F9012802D1039805B0F0BD002097
:1023A000FBE708B5034600B90123184600F010FB0F
:1023B000002008BD30B585B004460D4600230393C8
:1023C0000293FFF7C9FFA0B103AB009302AB012258
:1023D0002946204600F082FC012815D1039B83B1D9
:1023E0004FF080520B4B1A60BFF34F8FBFF36F8FCC
:1023F00007E002AB01222946204600F0FFFB01283E
:1024000005D1029805B030BD4FF00040FAE74FF01B
:102410000040F7E704ED00E070B584B004460E46D6
:1024200000230293B2F1FF3F0FD0154602B91D46BB
:10243000FFF792FF60B18223019304AB13E9070019
:1024400084E80700204604B070BD4FF0FF35EFE789
:102450002B4602AA3146002000F07CFB012806D062
:1024600015B900230193E8E740230193E5E7029BB8
:10247000002B02DB08230193DFE786230193DCE7CF
:1024800008B500F057FB012801D000F083FD08BD1E
:10249000094B9B6A1B6843B9012343B9064B9A6AEF
:1024A000D268D2685268DA6270470023F5E74FF0CD
:1024B000FF32014BDA6270474800002010B5044635
:1024C000006B00F011FF204600F00EFF10BD2DE95B
:1024D000F04780469946089D099F0A9C266B02F1A9
:1024E0008042013A06EB820626F0070600230F2BF6
:1024F00007D8C85CE21882F83400CA5C0AB101331C
:10250000F5E7002384F84330062D00D90625E5625F
:1025100065644FF0000AC4F848A0201D03F0BBF822
:1025200004F1180003F0B7F82461C5F10705A561AF
:102530006462C4F84CA084F850A04A464146304634
:1025400000F08AFC206007B13C60BDE8F087000025
:1025500070B5002407E004EB84029300104818448F
:1025600003F08EF80134062CF5D90E4C04F1BC06AC
:10257000304603F085F804F1D005284603F080F8D2
:1025800004F1140003F07CF804F1E40003F078F89F
:10259000204603F075F8A662C4F8F85070BD00BF7D
:1025A000780000204800002038B5054600F082FC85
:1025B000264BD3F8FC200132C3F8FC20D3F80031BD
:1025C000002B38D0214BD3F804314BB91F4BD3F833
:1025D0000031DA6AEB6A9A4202D81C4BC3F8005108
:1025E0001A4CD4F808310133C4F80831EB6A0122DF
:1025F0009A40D4F80C110A43C4F80C2104F13000BD
:1026000003EB83039A00291D104403F047F800F000
:1026100073FCD4F804316BB1D4F80031DA6AEB6A98
:102620009A4207D24FF08052094B1A60BFF34F8F86
:10263000BFF36F8F38BD054BC3F80051D3F8FC30A2
:10264000012BCDD1FFF784FFCAE700BF480000206F
:1026500004ED00E070B504460E461F4BD3F8105150
:10266000D3F80001043003F03FF860B91A4BD3F8F7
:102670000021D16A012202FA01F1D3F80C2122EAE9
:102680000102C3F80C21B4F1FF3F12D02C44124BCD
:10269000D3F800315C60A54214D80F4DA86AD5F874
:1026A0000011043103F006F8EB6A9C4200D2EC62A0
:1026B00070BD002EEAD00848D0F80011043102F0B5
:1026C000EDFF70BD044BD3F8F800D3F800110431CE
:1026D00002F0F0FF70BD00BF480000202DE9F0437C
:1026E00085B006460F4615469846900000F076FDE8
:1026F00000B38146542000F071FD0446B0B1C0F82B
:102700003090CCB10023039302940D9B01930C9B5A
:10271000009343462A4639463046FFF7D8FE204606
:10272000FFF742FF012005B0BDE8F083484600F006
:10273000DBFDE6E70024E4E74FF0FF30F3E70000BD
:1027400000B583B0174B01930023009380221649F4
:102750001648FFF7C3FF012805D0B0F1FF3F17D09F
:1027600003B05DF804FB4FF0500383F31188BFF30F
:102770006F8FBFF34F8F0E4B4FF0FF32DA620122A3
:10278000C3F804210022C3F8102100F02FFCE7E772
:102790004FF0500383F31188BFF36F8FBFF34F8F58
:1027A000FEE700BF6401002044630008752A0008AA
:1027B00048000020034AD2F818310133C2F818311A
:1027C000704700BF480000202DE9F041424BD3F88C
:1027D0001831002B70D1404BD3F810510135C3F89C
:1027E0001051CDB99B6A1B6843B14FF0500383F37E
:1027F0001188BFF36F8FBFF34F8FFEE7364B9A6A96
:10280000D3F8F8109962C3F8F820D3F820210132E8
:10281000C3F82021FFF73CFE2F4BDB6A9D423FD2DD
:1028200000242D4AD2F80031DB6A03EB83039900C0
:102830000A44136B012B46D9012444E00124264BA2
:102840009B6A1B6873B3002373BB234B9B6ADB68D3
:10285000DE6873689D422CD306F10408404602F0FE
:1028600043FFB36A1BB106F1180002F03DFFF36AA3
:1028700001229A40184FD7F80C110A43C7F80C21CF
:1028800007F1300003EB83039A004146104402F045
:1028900005FFF26AD7F80031DB6A9A42CED2CEE762
:1028A0000024CCE70123CFE74FF0FF320A4BDA6276
:1028B000B7E7094AD362B4E7074AD2F824310133B3
:1028C000C2F824310024044BD3F8283103B1012489
:1028D0002046BDE8F08100BF480000203A4BD3F805
:1028E000183143B94FF0500383F31188BFF36F8F52
:1028F000BFF34F8FFEE770B500F0DCFA324BD3F830
:102900001821013AC3F81821D3F81831002B57D1F8
:102910002D4BD3F8FC3023B9002400F0EDFA20460B
:1029200070BD0024284B5B692BB3274D2B6ADC68F4
:1029300004F1180002F0D8FE261D304602F0D4FE45
:10294000E36A01229A40D5F80C110A43C5F80C211C
:1029500005F1300003EB83039A003146104402F086
:102960009DFEE26AD5F80031DB6A9A42DAD3012291
:10297000C5F82821D6E70CB1FFF78AFD124BD3F832
:1029800024417CB9104BD3F82831DBB14FF0805291
:102990000E4B1A60BFF34F8FBFF36F8F0124BCE75C
:1029A000013C08D0FFF710FF0028F9D00122064BA8
:1029B000C3F82821F4E70022034BC3F82421E1E700
:1029C0000024AAE70024A8E74800002004ED00E066
:1029D00010B5B0B10446104BD3F8183143B14FF0E5
:1029E000500383F31188BFF36F8FBFF34F8FFEE760
:1029F000FFF7E0FE00212046FFF72CFEFFF76EFFF9
:102A000000E0002038B94FF08052044B1A60BFF349
:102A10004F8FBFF36F8F10BD4800002004ED00E022
:102A200038B5134BD3F814310BB3FFF7C3FE104B7B
:102A3000D3F8E440FFF752FF002CF2D000F03AFA4E
:102A40000B4CD4F8F030DD68281D02F04DFED4F8B0
:102A5000FC30013BC4F8FC30D4F81431013BC4F81D
:102A6000143100F049FA2846FFF728FDD9E738BDB0
:102A70004800002008B501E000F0E5FCFFF7D0FFBA
:102A8000064B1B6B012BF7D94FF08052044B1A6099
:102A9000BFF34F8FBFF36F8FEEE700BF48000020FA
:102AA00004ED00E0224BD3F81831CBB9204A0023C3
:102AB000C2F82831D2F80C31B3FA83F3DBB2C3F198
:102AC0001F0303EB830081000A44126B6AB94FF0C5
:102AD000500383F31188BFF36F8FBFF34F8FFEE76F
:102AE0000122134BC3F82821704710B4104A9900F3
:102AF000CC18A0001044446B64684463303219441D
:102B0000880001460830024494420BD0084903EB88
:102B100083039A000A44536BDB68C1F800315DF807
:102B2000044B70476068024A0A445063EEE700BFF6
:102B300048000020064BD3F804312BB1044BD3F8E6
:102B400018311BB9022070470120704700207047E0
:102B500048000020F8B507460C4615461E4600F012
:102B6000A9F9244BD3F8003193F85030DBB2022B93
:102B70000CD0204BD3F80021D06C20EA0700D064A1
:102B8000D3F80031012283F850201EBB00F0B4F9C5
:102B900000F090F925B1174BD3F80031DB6C2B60B6
:102BA000144BD3F8003193F85030DBB2012B1ED018
:102BB000104BD3F80031D96C21EA0401D964012407
:102BC0000C4BD3F80031002283F8502000F094F928
:102BD0002046F8BD11463046FFF73CFD4FF08052CD
:102BE000054B1A60BFF34F8FBFF36F8FCEE7002402
:102BF000E6E700BF4800002004ED00E0F8B5A8B10A
:102C000004461F4615460E4600F054F90FB1E36C1A
:102C10003B6094F85030DBB2022284F850206A1EE8
:102C2000032A3FD8DFE802F00B3136394FF050036A
:102C300083F31188BFF36F8FBFF34F8FFEE7E26C12
:102C40001643E6640125012B3FD1261D304602F0D4
:102C50004BFDE36A012199401E4AD2F80C01014361
:102C6000C2F80C11303203EB830398003146104454
:102C700002F014FDA36ACBB14FF0500383F3118827
:102C8000BFF36F8FBFF34F8FFEE7E26C0132E26458
:102C90000125D8E7E6640125D5E7022B04D0E664D8
:102CA0000125D0E70125CEE70025CCE7E26A094BF4
:102CB000D3F80031DB6A9A4207D94FF08052064BB5
:102CC0001A60BFF34F8FBFF36F8F00F015F92846DE
:102CD000F8BD00BF4800002004ED00E02DE9F843F6
:102CE000089E10B30446994615460F4600F0F2F9C7
:102CF000EFF311884FF0500383F31188BFF36F8F08
:102D0000BFF34F8FB9F1000F02D0E36CC9F8003068
:102D100094F85030DBB2022284F850206A1E032A55
:102D20002AD8DFE802F00B1C21244FF0500383F374
:102D30001188BFF36F8FBFF34F8FFEE7E26C17432D
:102D4000E7640125012B3ED1A36ACBB14FF05003BC
:102D500083F31188BFF36F8FBFF34F8FFEE7E26CF1
:102D60000132E2640125EDE7E7640125EAE7022B81
:102D700004D0E7640125E5E70125E3E70025E1E765
:102D8000194BD3F818311BBB271D384602F0ACFC99
:102D9000E36A01219940144AD2F80C010143C2F8B8
:102DA0000C11303203EB830398003946104402F0D3
:102DB00075FCE26A0C4BD3F80031DB6A9A4202D907
:102DC00066B10123336088F311882846BDE8F88393
:102DD00004F11801054802F061FCEAE70122024B08
:102DE000C3F82821EFE700BF480000205C00002066
:102DF0000B4B1B68B3F1FF3F08D04FF0500383F338
:102E00001188BFF36F8FBFF34F8FFEE74FF0500372
:102E100083F31188BFF36F8FBFF34F8FFEE700BFBF
:102E20000000002006480068006880F3088862B649
:102E300061B6BFF34F8FBFF36F8F00DF00BF00009D
:102E400008ED00E0DFF80C00016841F4700101605A
:102E50007047000088ED00E04FF0807340F8043CBC
:102E600021F0010140F8081C054B40F80C3C40F8EB
:102E7000202C6FF0020340F8243C4438704700BF18
:102E8000F12D00080000000000000000000000001C
:102E9000074B19680868B0E8F04F80F30988BFF362
:102EA0006F8F4FF0000080F311887047AFF3008000
:102EB000480100204FF0500383F31188BFF36F8F58
:102EC000BFF34F8F0A4A136801331360012B0DD1F2
:102ED000084B1B6813F0FF0F08D04FF0500383F32B
:102EE0001188BFF36F8FBFF34F8FFEE7704700BFAE
:102EF0000000002004ED00E0094B1B6843B94FF0CF
:102F0000500383F31188BFF36F8FBFF34F8FFEE73A
:102F1000013B034A13600BB983F31188704700BF6C
:102F20000000002000000000000000000000000081
:102F3000EFF30980BFF36F8F154B1A681EF0100F67
:102F400008BF20ED108A20E9F04F10604DF8043DD5
:102F50004FF0500080F31188BFF34F8FBFF36F8F96
:102F6000FFF7A0FD4FF0000080F3118808BC19683E
:102F70000868B0E8F04F1EF0100F08BFB0EC108AE0
:102F800080F30988BFF36F8F704700BFAFF30080F5
:102F90004801002008B54FF0500383F31188BFF3B8
:102FA0006F8FBFF34F8FFFF70FFC18B14FF08052B8
:102FB000024B1A60002383F3118808BD04ED00E082
:102FC000064B1B68064AA2FB03239B09013B054AEB
:102FD00013600722044B1A60704700BF04000020F2
:102FE000D34D621014E000E010E000E0314B1A68AD
:102FF000314B9A4219D02F4B1A68304B9A421DD050
:1030000000B583B02E4B1A78D2B20192FF221A700B
:103010001B78DBB28DF803309DF8033003F05003CA
:10302000284A1370072353601BE04FF0500383F3CB
:103030001188BFF36F8FBFF34F8FFEE74FF0500340
:1030400083F31188BFF36F8FBFF34F8FFEE71D4AE5
:103050005368013B53609DF803305B00DBB28DF891
:1030600003309DF8033013F0800FF0D1154A5368F8
:103070001B0203F4E0635360019BDBB2104A137040
:10308000114B1A6842F470021A601A6842F07042DA
:103090001A60FFF795FF00220C4B1A60FFF7D2FE73
:1030A0000B4A136843F040431360FFF7BBFEFFF782
:1030B0009FFE00BF00ED00E071C20F4170C20F41E2
:1030C00000E400E07401002020ED00E0000000209A
:1030D00034EF00E0EFF305830F2B0FD9104A9B5C10
:1030E000DBB2104A1278934208D24FF0500383F3B8
:1030F0001188BFF36F8FBFF34F8FFEE70A4B1B683A
:1031000003F4E063074A5268934208D94FF0500332
:1031100083F31188BFF36F8FBFF34F8FFEE77047C4
:10312000F0E300E0740100200CED00E0134A12F01F
:10313000070F20D0D11D21F00701C1F570531344B2
:103140000A460F49C1F818290020C1F81C09134488
:10315000083B23F00703C1F8203958601860981A1B
:1031600050601360C1F82409C1F828094FF00043EA
:10317000C1F82C3970474FF47053E2E77C0100200E
:103180006434002010B4134B1A6882421CD359686F
:103190005C18A04203D14068014459601846416858
:1031A0004418A24214D10C4CD4F82049A2420DD0AC
:1031B0005268114441601A6812680260984200D057
:1031C00018605DF8044B70471346DDE70460F5E7CF
:1031D0000260F3E77C3D00206434002070B50446B3
:1031E000FFF7E8FA3F4BD3F82039C3B13D4BD3F892
:1031F0002C391C426CD1ACB1083414F0070F11D03B
:1032000024F00704083404F007035BB14FF05003C7
:1032100083F31188BFF36F8FBFF34F8FFEE7FFF784
:1032200085FFE3E7002C55D02E4BD3F828399C427C
:1032300052D82C4BD3F8185903F6181301E02B463B
:1032400015466A68944202D92A68002AF7D1254AAD
:10325000D2F82029954241D01E6808362A681A60A3
:103260006B681B1B102B10D9281910F0070F08D002
:103270004FF0500383F31188BFF36F8FBFF34F8F6D
:10328000FEE743606C60FFF77DFF6968154AD2F87E
:1032900028395B1AC2F82839D2F82429934202D27D
:1032A000104AC2F824390F4BD3F82C390B436B600A
:1032B00000232B60FFF712FB16F0070F10D04FF022
:1032C000500383F31188BFF36F8FBFF34F8FFEE777
:1032D0000026EFE70026EDE70026EBE70026E9E70A
:1032E000304670BD6434002098B338B50446A0F170
:1032F000080550F8042C1749D1F82C190A4208D1B6
:103300004FF0500383F31188BFF36F8FBFF34F8FDC
:10331000FEE750F8080C40B14FF0500383F31188DA
:10332000BFF36F8FBFF34F8FFEE722EA010244F82D
:10333000042CFFF73FFA54F8041C064AD2F8283947
:103340000B44C2F828392846FFF71CFFFFF7C6FADE
:1033500038BD70476434002008B50F480F4B036038
:103360000523436000238360C3604FF40032026191
:103370004FF4800242610376012242768376C3765F
:1033800002774277FDF7AAFB00B908BD4F21044838
:1033900000F091F8F9E700BF744500200064004098
:1033A0004C6300080268154B9A4200D0704710B574
:1033B00086B00024009403F5EA331A6C42F00072E0
:1033C0001A641B6C03F000730093009B4FF4C0530E
:1033D0000193022302930394032304930923059387
:1033E00001A9074801F006FD22460521142001F03D
:1033F0009DFC142001F0CCFC06B010BD0064004020
:103400000000024008B500F0CBFC4FF4FA70FEF764
:10341000C8FFF8E700B585B002E014F0020F0FD145
:103420004FF0FF32032101A8FEF7F6FF019B082BA6
:10343000F6D1029C14F0010FEFD000F0E3FDECE7B1
:1034400001F076FAECE7704770B58AB0104C05AD24
:1034500026460FCE0FC533682B60002105A8FEF766
:1034600086FF0C4B18606D4614340FCC0FC52368D3
:103470002B6000216846FEF77AFF074B1860FDF7C6
:1034800009FB00F095FB00F019FD0AB070BD00BF0C
:10349000F05F0008A44500209C45002008B5FEF719
:1034A00080FF08BD08B50368B3F1804F00D008BDA8
:1034B00001F004FCFBE7FEE700B595B000210191A7
:1034C0002E4B1A6C42F080521A641B6C03F080532E
:1034D0000193019B02912A4A136823F4404343F469
:1034E00080431360136803F440430293029B01235B
:1034F00008934FF48033099302230E934FF4800214
:103500000F92062210925A221192129304231393BF
:1035100008A801F0A7FD20BB01F064FD28BB0F2324
:10352000039302210491002305934FF480520692E5
:10353000079303A801F0B4FFD8B902F05DF8114B6E
:10354000A3FB0030800901F02FFC042001F042FCB5
:1035500000220F214FF0FF3001F0E8FB15B05DF8BD
:1035600004FBC1210848FFF7A6FFC8210648FFF762
:10357000A2FFD6210448FFF79EFF00BF003802409B
:1035800000700040D34D62107463000808B501F06C
:103590007BFBFFF791FF02F0E7F802F0B9F8FFF7C5
:1035A000DBFE00F08FF800F041F900F05DF900F06B
:1035B000E3F800F0FFF800F079F900F019F900F0F5
:1035C000E7FB00F0DDFB0D4B1A68D36823F40053D2
:1035D000D36040F24C4001F083FB00F0C9FB01F0E6
:1035E0008BFA00F0E1FD00F033FD00F009FE01F080
:1035F00093FAFFF729FFFEF7B5FEFEE7B04700207C
:1036000010B588B0002201461C2001F08FFB1C2061
:1036100001F0BEFB00240194144B1A6C42F001022D
:103620001A641B6C03F001030193019B02A903A818
:1036300002F008F801F0E6FF43000D48A0FB032369
:103640009B0C013B0B484FF08042026040F2E73296
:10365000C260436004618460FEF762FA10B1012029
:1036600008B010BD0348FEF77CF8F9E700380240C7
:1036700083DE1B43B84500200F49D1F8883043F45E
:103680007003C1F888300D4B1A6842F001021A60CD
:10369000002098601A6822F0847222F480321A6046
:1036A000074A5A601A6822F480221A60D8604FF0E4
:1036B00000638B60704700BF00ED00E000380240FF
:1036C0001030002400B587B01848194B0360592307
:1036D00043600023836040F2E732C26003614361CC
:1036E000FEF71EFA98B906A94FF4805341F8103D31
:1036F0000E48FEF742F878B900230093019369461B
:103700000A48FEF726FA60B907B05DF804FB4921C4
:103710000848FFF7D0FEE6E74F210648FFF7CBFE4B
:10372000EAE756210348FFF7C6FEEDE7F44500201F
:10373000000001408463000802680E4B9A4200D0EA
:10374000704700B583B00022019203F59C33596C99
:1037500041F0010159645B6C03F001030193019B8B
:103760000521192001F0E2FA192001F011FB03B044
:103770005DF804FB0000014008B50B480B4B0360EB
:103780004FF4E133436000238360C36003610C2284
:1037900042618361C361FEF71FFC00B908BD53217C
:1037A0000348FFF788FEF9E730480020004C00404E
:1037B0009463000808B50B480B4B03604FF4E133EA
:1037C000436000238360C36003610C224261836114
:1037D000C361FEF701FC00B908BD65210348FFF78E
:1037E0006AFEF9E71047002000500040946300088B
:1037F00008B50B480B4B03604FF4E13343600023E3
:103800008360C36003610C2242618361C361FEF780
:10381000E3FB00B908BD77210348FFF74CFEF9E749
:1038200030460020007800409463000808B50B483B
:103830000B4B03604FF46123436000238360C3603C
:1038400003610C2242618361C361FEF7C5FB00B9CD
:1038500008BD8A210348FFF72EFEF9E7B047002094
:10386000001001409463000808B50C480C4B03603D
:103870000C4B436000238360C3604FF4806202619D
:103880000C2242618361C361FEF7A6FB00B908BD4B
:103890009D210548FFF70FFEF9E700BFD046002045
:1038A00000480040A08601009463000808B50B485A
:1038B0000B4B03604FF4E133436000238360C3602C
:1038C00003610C2242618361C361FEF785FB00B98D
:1038D00008BDB0210348FFF7EEFDF9E7F0470020EF
:1038E00000140140946300082DE9F0418CB0036896
:1038F0009B4A934215D004469A4A934235D09A4A3D
:10390000934263D0994A934200F08380984A93424D
:1039100000F0C080974A934200F0FE800CB0BDE8F2
:10392000F08100240194944B1A6C42F400221A6432
:103930001B6C03F400230193019B4FF44063079336
:10394000022308930123099303230A9308230B936B
:1039500007A98A4801F04EFA22460521342001F0D9
:10396000E5F9342001F014FAD8E700240294824BE0
:103970001A6C42F480121A641B6C03F480130293D5
:10398000029B4FF4805307934FF00208CDF820803C
:103990000127099703260A9608250B9507A977485A
:1039A00001F028FA04230793CDF8208009970A969E
:1039B0000B9507A9724801F01DFA22460521352012
:1039C00001F0B4F9352001F0E3F9A7E700240394EE
:1039D000694B1A6C42F080421A641B6C03F08043FE
:1039E0000393039BC02307930223089301230993A6
:1039F00003230A9308230B9307A9624801F0FAF9FD
:103A000022460521522001F091F9522001F0C0F91F
:103A100084E700250495584B5A6C42F010025A6412
:103A20005B6C03F010030493049BC02307930223F1
:103A300008930123099303230A9307230B9307A9F0
:103A4000514801F0D7F95148514B03604FF00063E2
:103A500043608560C5604FF48063036145618561A3
:103A60004FF48073C36105624562FDF7B1FC58B93C
:103A7000464B63639C6300220521252001F056F923
:103A8000252001F085F949E740F22F114148FFF761
:103A900012FDEDE700250595374B1A6C42F48022A4
:103AA0001A641B6C03F480230593059B4FF4406359
:103AB0000793022308930123099303230A930723FF
:103AC0000B9307A9304801F095F93348334B036055
:103AD0004FF0006343608560C5604FF4806303610D
:103AE000456185614FF48073C36105624562FDF7EE
:103AF0006FFC58B9284B63639C6300220521272083
:103B000001F014F9272001F043F907E74FF4AE71F3
:103B10002048FFF7D0FCEDE700240694164B5A6CC2
:103B200042F020025A645B6C03F020030693069B6C
:103B30004FF484430793022308930123099303233B
:103B40000A9308230B9307A9154801F053F922465D
:103B50000521472001F0EAF8472001F019F9DDE6D8
:103B6000004C004000500040007800400010014030
:103B700000480040001401400038024000080240A4
:103B8000000C024000140240000402405047002094
:103B900040640240946300087046002028600240A0
:103BA00000180240014B1860704700BF70480020A9
:103BB00010B58AB000230593069301220792009363
:103BC000019302930393049308920E230993074CE5
:103BD00069462046FDF728F82046FDF7BDF8226823
:103BE000536943F0020353610AB010BD74450020CD
:103BF0000E4B984200D0704710B50D4C234604F18F
:103C000008020021FDF792F90A4B1B68A269A1681E
:103C1000204698470121084B1868FEF7CBFB034B61
:103C20001A68536943F00203536110BD74450020C4
:103C3000943D0020704800209C450020034B1A68EA
:103C4000536943F002035361704700BF744500207D
:103C50002DE9F0410646C1F3C70301F007084249C8
:103C60004A620024CC620C6300E03B465F1EFFB258
:103C7000002B47D03C4908234B63631C9BB2325D49
:103C800081F83C20A21C92B2F35C81F83D30E31C29
:103C90009BB2B25C81F83E20221D92B2F35C81F8A7
:103CA0003F30631D9BB2B25C81F84020A21D92B2EE
:103CB000F35C81F84130E31D9BB2B25C81F8422095
:103CC0000834A4B2F35C81F8433001F1440301F1FC
:103CD0003C0224312548FDF76DF800F0FBFF054656
:103CE000214B596C2148FDF70BF90028BDD000F09D
:103CF000F1FF401B0A28F3D91B4B596C1B48FDF7F9
:103D0000D3F8B2E7B8F1000F2CD0174AC2F83480CC
:103D100008E0611C305D144A1A4482F83C0001330B
:103D2000DBB28CB24345F4D30F4901F1440301F1F6
:103D30003C0224310D48FDF73DF800F0CBFF04466E
:103D4000094B596C0948FDF7DBF858B100F0C2FF88
:103D5000001B0A28F4D9044B596C0448FDF7A4F859
:103D6000BDE8F081BDE8F081943D0020744500205D
:103D70004FF48042014B9A61704700BF0008024037
:103D80004FF08042014B9A61704700BF000802402B
:103D90004FF40042014B9A61704700BF0008024097
:103DA000024A536983F4004353617047000802409C
:103DB00010B5044613468162A28500680A46011DBB
:103DC000606BFDF76DFB2268536943F0400353615C
:103DD00010BD0000014B1860704700BF78480020FC
:103DE00008B54FF47A730A4601460248FEF723F9F4
:103DF00008BD00BFB047002003681A6812F0100F1A
:103E00004FD0DA6812F0100F4BD010B582B00446D4
:103E1000002201921A6801925B680193019B214B79
:103E2000984204D0204B984221D002B010BD436B81
:103E30001A68136823F001031360436B1B68596809
:103E40001A4B1B68C1F57A71194898470221194B22
:103E50001868FEF7AFFA636B1B684FF47A725A600A
:103E6000636B1A68136843F001031360DDE7436B6B
:103E70001A68136823F001031360436B1B685B68C7
:103E8000202B0AD0636B1B6832225A60636B1A685E
:103E9000136843F001031360C7E70748FCF7D2FB40
:103EA000F0E77047B0470020D04600207848002057
:103EB000944800209C4500208048002010B5184CF4
:103EC0004FF47A7217492046FFF772FF2368DA68C9
:103ED00042F01002DA60DA6842F40052DA60124C02
:103EE000322212492046FFF763FF2268D36843F06D
:103EF0001003D36001220E490E48FEF70DF901228E
:103F00000D490E48FEF708F901220D490D48FEF74C
:103F100003F901220C490D48FEF7FEF810BD00BF61
:103F2000B047002094480020D04600208048002060
:103F30007C480020304800207448002010470020B2
:103F400075480020F04700207D48002030460020C2
:103F500010B51A4B984209D0194B984210D0194B02
:103F6000984217D0184B98421ED010BD174C20789D
:103F7000FCF776FC012221461048FEF7CDF810BD73
:103F8000134C2078FCF738FD012221460C48FEF73F
:103F9000C3F810BD0F4C2078FCF72FFD01222146FD
:103FA0000848FEF7B9F810BD0B4C2078FCF726FD49
:103FB000012221460448FEF7AFF8D6E7304800203A
:103FC00010470020F0470020304600207C480020A9
:103FD00074480020754800207D48002008B5A1F5F0
:103FE000C063372B00D908BD0B46014603EB4303E2
:103FF000D800A0F51040024B184400F08AF8F2E710
:104000007C4C002010B5002401E00134E4B2372CD0
:104010000DD8074B4FF4D07000FB043000F0D4FBF8
:104020000028F2D0034A136801331360EDE710BD96
:10403000BC510020BCAC002001600023A0F89C31E2
:1040400080F89A31038100F10A0343607047000051
:1040500038B5002415E004EB4403DD000C4B1D448F
:1040600080220C4901EBC411284600F019F82946BA
:10407000094B4FF4D07000FB0430FFF7DDFF013433
:10408000E4B2372CE7D90548FFF78CFD38BD00BFF7
:104090007C4C0020C0AC0020BC510020DD3F00085B
:1040A0000346002BFDD00029FDD0002AFDD072B6BA
:1040B0001960501E084458609A600020D860196149
:1040C000596162B6704709B370B40D4672B60023E9
:1040D0000CE04469695C217041690131416181688A
:1040E00001398160C1680131C160013319469342D1
:1040F00008D2846834B146694468A642E9D90468A4
:104100004461E6E762B6002070BC70474FF0FF30B4
:104110007047F1B170B40D4600230CE04469695C4E
:104120002170416901314161816801398160C16853
:104130000131C1600133194693420DD2846834B114
:1041400046694468A642E9D904684461E6E700206C
:1041500003E04FF0FF307047002070BC704703460B
:10416000002BFDD072B619695A68914201D91A68BC
:104170001A611A6912F8010B1A619A6801329A6081
:10418000DA68013ADA6062B670470028FDD0C0688C
:104190007047000008B50A4601460248FFF793FF42
:1041A00008BD00BFC0C8002008B54FF47A720449AA
:1041B0000448FFF775FF0448FFF70CFE08BD00BF79
:1041C00010C90020C0C800209541000870B5054600
:1041D0000E46002401E00134E4B2084B03EBC403B3
:1041E0005B6853B1B5F80910044A32F834209142A3
:1041F000F1D1314628469847EDE770BDDC3D0020FF
:10420000002307E0054A002122F8331002EBC30225
:1042100051600133312BF5DD704700BFDC3D0020DC
:10422000002300E00133312B12DC0A4A32F833203C
:10423000002AF7D1074A02EBC3025268002AF1D1E3
:10424000044A22F8330002EBC30359600020704790
:1042500001207047DC3D002008B546F60113984266
:1042600044D01ED846F20263984251D00DD946F28E
:104270000173984234D046F60103984210D1274981
:1042800046F60100FFF7CCFF08BD46F20113984245
:1042900005D1234946F20110FFF7C2FF08BD08BD52
:1042A00008BD46F60133984226D00DD946F60343A1
:1042B000984227D046F60153984210D1194946F644
:1042C0000150FFF7ADFF08BD46F60123984205D126
:1042D000154946F60120FFF7A3FF08BD08BD08BD3C
:1042E000124946F20170FFF79BFF08BD104946F6E0
:1042F0000110FFF795FF08BD0E4946F60130FFF7A4
:104300008FFF08BD0C4946F60340FFF789FF08BD43
:104310000A4946F20260FFF783FF08BD854B00089B
:10432000454C0008054C0008C54B0008654B0008CB
:10433000A54B0008E54B0008654C0008254C00081B
:1043400070B506460C4615465A231370A2F80510A0
:104350000C21104601F0EAFA2246314605F10C0024
:1043600001F016FE04F10E01284601F0A7FA04F14F
:104370000E00C0B270BD000038B504460D46A54918
:1043800081F8250381F8265381F8272381F8283303
:10439000BDF81030A1F82D33B1F8B4345A1CA1F88F
:1043A000B424A1F82B3301F54972BDF81810059813
:1043B000FFF7C6FF81B2082C00F00B811CD8042C3B
:1043C00000F090800CD8022C4ED06CD8012C06D175
:1043D000013D032D2ED8DFE805F02F353B4138BDD8
:1043E000062C00F0B68000F2D480013D032D21D8C8
:1043F000DFE805F0979DA3A90C2C00F067810DD88C
:104400000A2C00F0238100F24181013D032D11D8D7
:10441000DFE815F004010A01100116010E2C00F06E
:104420009581C0F07381FF2C05D140F2FF527A488C
:10443000FFF70EFC38BD38BD4FF4A0627648FFF799
:1044400007FC38BD40F201527348FFF701FC38BD4C
:1044500040F202527048FFF7FBFB38BD40F20352B6
:104460006D48FFF7F5FB38BD013D032DE2D8DFE8CD
:1044700005F002080E144FF4A2626748FFF7E8FB4C
:1044800038BD40F211526448FFF7E2FB38BD40F2FC
:1044900012526148FFF7DCFB38BD40F213525E4810
:1044A000FFF7D6FB38BD013D032DC3D8DFE805F08B
:1044B00002080E144FF4A4625748FFF7C9FB38BD39
:1044C00040F221525448FFF7C3FB38BD40F222525C
:1044D0005148FFF7BDFB38BD40F223524E48FFF76D
:1044E000B7FB38BD013D032DA4D8DFE805F0020875
:1044F0000E144FF4A6624848FFF7AAFB38BD40F2FD
:1045000031524548FFF7A4FB38BD40F232524248D1
:10451000FFF79EFB38BD40F233523F48FFF798FB50
:1045200038BD4FF4A8623C48FFF792FB38BD40F21B
:1045300041523948FFF78CFB38BD40F242523648B1
:10454000FFF786FB38BD40F243523348FFF780FB4C
:1045500038BD013D032D3FF66DAFDFE805F00208E1
:104560000E144FF4AA622C48FFF772FB38BD40F2DC
:1045700051522948FFF76CFB38BD40F25252264891
:10458000FFF766FB38BD40F253522348FFF760FB4C
:1045900038BD013D032D3FF64DAFDFE805F00208C1
:1045A0000E144FF4AC621C48FFF752FB38BD40F2CA
:1045B00061521948FFF74CFB38BD40F26252164871
:1045C000FFF746FB38BD40F263521348FFF740FB4C
:1045D00038BD013D032D3FF62DAFDFE805F00208A1
:1045E0000E144FF4AE620C48FFF732FB38BD40F2B8
:1045F00071520948FFF72CFB38BD40F27252064851
:10460000FFF726FB38BD40F273520348FFF720FB4B
:1046100038BD00BFDC3D0020004100204FF4B062F7
:104620005A48FFF715FB38BD40F281525748FFF753
:104630000FFB38BD40F282525448FFF709FB38BDEA
:1046400040F283525148FFF703FB38BD013D032D73
:104650003FF6F0AEDFE805F002080E144FF4B26248
:104660004A48FFF7F5FA38BD40F291524748FFF744
:10467000EFFA38BD40F292524448FFF7E9FA38BDEC
:1046800040F293524148FFF7E3FA38BD013D032D54
:104690003FF6D0AEDFE805F002080E144FF4B46226
:1046A0003A48FFF7D5FA38BD40F2A1523748FFF734
:1046B000CFFA38BD40F2A2523448FFF7C9FA38BDEC
:1046C00040F2A3523148FFF7C3FA38BD013D032D34
:1046D0003FF6B0AEDFE805F002080E144FF4B66204
:1046E0002A48FFF7B5FA38BD40F2B1522748FFF724
:1046F000AFFA38BD40F2B2522448FFF7A9FA38BDEC
:1047000040F2B3522148FFF7A3FA38BD013D032D13
:104710003FF690AEDFE805F002080E144FF4B862E1
:104720001A48FFF795FA38BD40F2C1521748FFF713
:104730008FFA38BD40F2C2521448FFF789FA38BDEB
:1047400040F2C3521148FFF783FA38BD013D032DF3
:104750003FF670AEDFE805F002080E144FF4BA62BF
:104760000A48FFF775FA38BD40F2D1520748FFF703
:104770006FFA38BD40F2D2520448FFF769FA38BDEB
:1047800040F2D3520148FFF763FA38BD00410020E0
:1047900030B585B04478802C04D0C278802A04D00B
:1047A00005B030BDFFF71CFBFAE703798178B0F85C
:1047B0000550029500F10C050195B0F80900009034
:1047C0002046FFF7D9FDEBE770B50446002593E0DE
:1047D0005A2803D00023A4F89C318DE0012384F8EB
:1047E0009A31B4F89C315A1CA4F89C212344987245
:1047F00082E0B4F89C21531C9BB2A4F89C31224463
:104800009072062B78D12081022384F89A3173E0CC
:10481000B4F89C315A1CA4F89C2123449872238933
:1048200043EA002080B22081B0F5C17F03DA032380
:1048300084F89A3160E0002384F89A31A4F89C311E
:104840005AE0B4F89C21531C9BB2A4F89C3122443A
:1048500090720C2B50D10C2104F10A0001F052F897
:1048600018B1042384F89A3146E0002384F89A3181
:10487000A4F89C3101253FE0B4F89C3121890E3128
:104880008B4204DA5A1CA4F89C2123449872B4F891
:104890009C31994230DC0023A4F89C3184F89A3191
:1048A00004F10A06304600F0E5FF00283CD06368BA
:1048B0005B78F02B08D0802B1ED121890E3189B274
:1048C0003046FFF765FF17E021890E3189B2304687
:1048D000FFF77CFC6368DB78022B01D0082B0BD13F
:1048E00021890E3189B23046FFF77AFA04E00023BD
:1048F00084F89A31A4F89C312068FFF746FCA8B1EF
:104900002068FFF72CFC94F89A31042BEFD801A211
:1049100052F823F0D1470008F34700081148000877
:1049200043480008794800080125E5E7284670BD9E
:1049300010B5B6E05A2806D0674B002283F8B6249B
:10494000A3F8B824ADE0644B012283F8B624B3F891
:10495000B824511CA3F8B814134483F8BC04A0E095
:104960005D4BB3F8B8144A1C92B2A3F8B8240B44B8
:1049700083F8BC04062A40F09480574BA3F84C06F9
:10498000022283F8B6248CE0534AB2F8B834591C9A
:10499000A2F8B814134483F8BC04B2F84C3643EAC6
:1049A000002080B2A2F84C06B0F5C17F04D20322E9
:1049B000494B83F8B62474E0474B002283F8B624B1
:1049C000A3F8B8246DE0444BB3F8B8144A1C92B273
:1049D000A3F8B8240B4483F8BC040C2A61D10C2141
:1049E0003E4800F08FFF20B104223B4B83F8B624F1
:1049F00057E0394B002283F8B624A3F8B82450E0DE
:104A0000354BB3F8B824B3F84C160E318A4205D2B0
:104A1000541CA3F8B8441A4482F8BC042E4BB3F8D3
:104A2000B83499423DD82C480023A0F8B83480F817
:104A3000B63400F2BC4000F01DFF90B3264B93F853
:104A4000BD34F02B19D0244CB4F84C160E3189B279
:104A500004F2BC40FFF79CFE94F8BD34FF2B20D13C
:104A600094F8BE34FF2B1CD1B4F84C160E3189B229
:104A700004F2BC40FFF7AAFB13E0174B93F8BE34D7
:104A80007BB91548B0F84C160E3189B200F2BC4023
:104A9000FFF79CFB05E0104B002283F8B624A3F837
:104AA000B8240F48FFF771FBA0B10D48FFF757FB83
:104AB000094B93F8B634042BEDD801A252F823F039
:104AC000354900086149000889490008C7490008BC
:104AD000014A000810BD00BFDC3D002098420020C4
:104AE000C0C8002008B572B60421024800F0FCFFDF
:104AF00062B608BD00001E0808B500F0EFFF044BC9
:104B0000984201D0FFF7EEFF014A024BDA6108BD7F
:104B100001000801D8C8002008B546F20110FFF7CF
:104B20009BFB46F20170FFF797FB46F20260FFF72E
:104B300093FB46F60100FFF78FFB46F60110FFF7E7
:104B40008BFB46F60120FFF787FB46F60130FFF7A7
:104B500083FB46F60340FFF77FFB46F60150FFF765
:104B60007BFB08BD10B582B00446B0F8052000F10B
:104B70000C0101A801F00CFA01A92079FBF7C0FD96
:104B800002B010BD10B582B00446B0F8052000F1A7
:104B90000C0101A801F0FCF901A92079FBF706FE40
:104BA00002B010BD10B582B00446B0F8052000F187
:104BB0000C0101A801F0ECF901A92079FBF714FE22
:104BC00002B010BD10B586B00446B0F8052000F163
:104BD0000C01684601F0DCF969462079FBF734FDE9
:104BE00006B010BD10B582B00446B0F8052000F143
:104BF0000C0101A801F0CCF901A92079FBF712FE04
:104C000002B010BD10B582B00446B0F8052000F126
:104C10000C0101A801F0BCF901A92079FBF752FDB4
:104C200002B010BD10B58CB00446B0F8052000F1FC
:104C30000C01684601F0ACF969462079FBF79CFD50
:104C40000CB010BD10B582B00446B0F8052000F1DC
:104C50000C0101A801F09CF901A92079FBF76EFD78
:104C600002B010BD10B584B00446B0F8052000F1C4
:104C70000C01684601F08CF969462079FBF7C0FE0B
:104C800004B010BD7047000008B50B4B1A6842F421
:104C900000721A601A6842F480621A601A6842F45C
:104CA00080721A60032000F02FF80020FEF7A8FCA5
:104CB000FFF7E8FF002008BD003C0240034A1168EE
:104CC000034B1B780B441360704700BF04CD0020DA
:104CD00008000020014B1868704700BF04CD002079
:104CE00038B50446FFF7F6FF0546B4F1FF3F02D0A2
:104CF000044B1B781C44FFF7EDFF401B8442FAD89D
:104D000038BD00BF08000020074AD36823F4E063E1
:104D10001B041B0C000200F4E060184340F0BF606D
:104D200040F40030D060704700ED00E030B4164B26
:104D3000DB68C3F30223C3F10704042C28BF042457
:104D40001D1D062D17D9033B012505FA04F4013C6E
:104D50002140994005FA03F3013B13401943002811
:104D60000BDB0901C9B200F1604000F5614080F839
:104D7000001330BC70470023E6E700F00F00090184
:104D8000C9B2024B1954F4E700ED00E014ED00E065
:104D9000420900F01F00012303FA00F0014B43F821
:104DA0002200704700E100E00138B0F1807F0AD2B4
:104DB000064B5860F021064A82F8231000209860C4
:104DC00007221A6070470120704700BF10E000E022
:104DD00000ED00E0042805D0054A136823F0040321
:104DE00013607047024A136843F00403136070476E
:104DF00010E000E0F0B583B000244BE04FEAD40EA1
:104E00000EF1080E50F82E2004F00706B6000F270A
:104E1000B74022EA07020F6907FA06F6324340F864
:104E20002E2046E0092600E0002606FA0EF6324360
:104E30000233644E46F82320634B1A68EB4302EAC0
:104E400003064F6817F4803F01D045EA02065E4A28
:104E50001660526803EA02064F6817F4003F01D05B
:104E600045EA0206584A5660926803EA02064F680D
:104E700017F4801F01D045EA0206534A9660D268B3
:104E800013404E6816F4001F01D045EA02034E4A53
:104E9000D36001340F2C00F292800123A3400A68F2
:104EA00003EA0205AB42F4D14A68022AA6D0122ACC
:104EB000A4D006684FEA440E032202FA0EF2D2434F
:104EC00016404F6807F0030707FA0EF73E430660E7
:104ED0004E68771E012F03D9112E01D0122E0FD14B
:104EE00086681640CF6807FA0EF73E43866046682C
:104EF00026EA03034E68C6F30016A6403343436018
:104F0000C3681A408B6803FA0EF31A43C2604B68F9
:104F100013F0805FBDD0002301932C4B5A6C42F4F8
:104F200080425A645B6C03F480430193019BA308A5
:104F30009E1C244A52F8262004F003064FEA860EEF
:104F40000F2606FA0EF622EA0602214FB8423FF477
:104F50006BAF204EB04222D006F58066B04220D022
:104F600006F58066B0421ED006F58066B0421CD0C1
:104F700006F58066B0421AD006F58066B04218D0B9
:104F800006F58066B04216D006F58066B04214D0B1
:104F900006F58066B0423FF445AF0A2645E7012694
:104FA00043E7022641E703263FE704263DE70526BF
:104FB0003BE7062639E7072637E7082635E703B03B
:104FC000F0BD00BF00380140003C01400038024005
:104FD000000002400004024012B9090481617047D8
:104FE0008161704710B582B000230193194B1A6C90
:104FF00042F080521A641B6C03F080530193019BB2
:105000000122154B1A60FFF765FE0446134B5B68DF
:1050100013F4803F08D1FFF75DFE001BB0F57A7FE7
:10502000F4D9032002B010BD01220D4B1A60FFF726
:1050300051FE0446094B5B6813F4003F07D1FFF7AC
:1050400049FE001BB0F57A7FF4D90320EAE700207F
:10505000E8E700BF0038024040000E420070004008
:1050600044000E42002800F0BB8170B582B00446B7
:10507000036813F0010F3BD0A74B9B6803F00C03B0
:10508000042B2CD0A44B9B6803F00C03082B21D0DD
:105090006368B3F5803F4FD0B3F5A02F52D09E4B3D
:1050A0001A6822F480321A601A6822F480221A6088
:1050B0006368002B50D0FFF70DFE0546964B1B682A
:1050C00013F4003F14D1FFF705FE401B6428F5D907
:1050D00003208AE1904B5B6813F4800FD8D08E4B8D
:1050E0001B6813F4003F03D06368002B00F07A8143
:1050F000236813F0020F55D0874B9B6813F00C0FF9
:105100003ED0854B9B6803F00C03082B33D0E3683B
:10511000002B68D00122814B1A60FFF7DBFD0546AA
:105120007D4B1B6813F0020F54D1FFF7D3FD401BDA
:105130000228F5D9032058E1774A136843F48033F5
:105140001360B5E7744B1A6842F480221A601A683B
:1051500042F480321A60ABE7FFF7BCFD05466E4BA8
:105160001B6813F4003FC3D0FFF7B4FD401B642855
:10517000F5D9032039E1684B5B6813F4800FC6D181
:10518000654B1B6813F0020F04D0E368012B01D0BC
:1051900001202AE1604A136823F0F803216943EAF9
:1051A000C1031360236813F0080F40D0636963B331
:1051B00001225B4B1A60FFF78DFD0546564B5B6F76
:1051C00013F0020F33D1FFF785FD401B0228F5D9FC
:1051D00003200AE1504A136823F0F803216943EAE7
:1051E000C1031360DEE700224C4B1A60FFF772FD2B
:1051F0000546494B1B6813F0020FD3D0FFF76AFD39
:10520000401B0228F5D90320EFE00022444B1A602E
:10521000FFF760FD0546404B5B6F13F0020F06D0B1
:10522000FFF758FD401B0228F5D90320DDE0236875
:1052300013F0040F79D0384B1B6C13F0805F33D11F
:1052400000230193344B1A6C42F080521A641B6C99
:1052500003F080530193019B0125324B1B6813F42B
:10526000807F23D0A368012B34D0052B38D02A4B64
:105270001A6F22F001021A671A6F22F004021A67ED
:10528000A368002B36D0FFF725FD0646224B1B6F87
:1052900013F0020F48D1FFF71DFD801B41F2883348
:1052A0009842F3D90320A0E00025D6E71D4A1368F1
:1052B00043F480731360FFF70DFD0646194B1B681E
:1052C00013F4807FCED1FFF705FD801B0228F5D9AE
:1052D00003208AE0104A136F43F001031367CFE7FE
:1052E0000D4B1A6F42F004021A671A6F42F0010266
:1052F0001A67C5E7FFF7EEFC0646074B1B6F13F076
:10530000020F11D0FFF7E6FC801B41F28833984270
:10531000F3D9032069E000BF003802400000474293
:10532000800E474200700040E5B9A369002B5BD0B6
:10533000304A926802F00C02082A58D0022B17D08B
:1053400000222D4B1A60FFF7C5FC0446294B1B6851
:1053500013F0007F42D0FFF7BDFC001B0228F5D9F7
:10536000032042E0234A136C23F080531364DCE7EC
:105370000022214B1A60FFF7ADFC05461D4B1B6850
:1053800013F0007F06D0FFF7A5FC401B0228F5D9DB
:1053900003202AE0E369226A1343626A43EA821324
:1053A000A26A5208013A43EA0243E26A43EA02630C
:1053B000104A53600122104B1A60FFF78BFC044621
:1053C0000C4B1B6813F0007F06D1FFF783FC001B1A
:1053D0000228F5D9032008E0002006E0002004E0C0
:1053E00001207047012000E0002002B070BD0120C4
:1053F000FBE700BF0038024060004742F8B5254B8C
:105400009B6803F00C03042B41D0082B01D02248E9
:10541000F8BD204B5A6802F03F025B6813F4800F1E
:1054200012D01C4B5968C1F3881100231B48A1FB03
:105430000001FAF7F3FE174B5B68C3F30143013336
:105440005B00B0FBF3F0F8BD124B5B68C3F388134D
:105450001E4600275C010025E41A65EB0705A9013B
:1054600041EA9461A001001B61EB0501CB0043EA16
:105470005073C400A01943EB07018B0243EA905319
:105480008402204619460023FAF7C8FED3E70348F2
:10549000F8BD00BF003802400024F400001BB70034
:1054A000002800F09D8070B504464F4B1B6803F048
:1054B0000F038B4209D2CBB24B4A1370136803F02F
:1054C0000F03994201D0012070BD236813F0020F31
:1054D00017D013F0040F04D0444A936843F4E05308
:1054E0009360236813F0080F04D0404A936843F494
:1054F000604393603D4A936823F0F003A068034340
:1055000093600D46236813F0010F32D06368012BBE
:1055100021D09A1E012A25D9344A126812F0020FAE
:1055200060D032498A6822F0030213438B60FFF790
:10553000D1FB06462D4B9B6803F00C036268B3EB6E
:10554000820F16D0FFF7C6FB801B41F288339842CA
:10555000F0D9032070BD254A126812F4003FE0D153
:10556000012070BD214A126812F0007FD9D10120BC
:1055700070BD1D4B1B6803F00F039D4209D2EAB2B8
:10558000194B1A701B6803F00F039D4201D00120D4
:1055900070BD236813F0040F06D0144A936823F4F7
:1055A000E053E1680B439360236813F0080F07D0C2
:1055B0000E4A936823F46043216943EAC103936070
:1055C000FFF71CFF094B9B68C3F30313084AD35C26
:1055D000D840084B18600020FEF712F8002070BD7C
:1055E00001207047012070BD003C0240003802409D
:1055F0001860000804000020014B1868704700BFC5
:105600000400002008B5FFF7F7FF044B9B68C3F3C5
:105610008223034AD35CD84008BD00BF0038024053
:105620002860000808B5FFF7E7FF044B9B68C3F349
:105630004233034AD35CD84008BD00BF0038024063
:10564000286000080F2303600B4B9A6802F00302E6
:1056500042609A6802F0F00282609A6802F4E052B6
:10566000C2609B68DB0803F4E0530361034B1B68D3
:1056700003F00F030B60704700380240003C02400B
:1056800000F1080343604FF0FF328260C3600361A2
:1056900000230360704700230361704743684B6039
:1056A0009A688A609A68516099600861036801335A
:1056B0000360704730B40D68B5F1FF3F02D000F1D0
:1056C000080202E0026904E01A4653681C68A54219
:1056D000FAD253684B6099608A6051600861036830
:1056E0000133036030BC7047036942688168916090
:1056F0008268416851605A68904205D00022026178
:10570000186801381860704782685A60F6E7000030
:1057100010B582B000240094124B1A6B42F4800240
:105720001A631A6B02F480020092009A01941A6BB9
:1057300042F400121A631B6B03F400130193019BE4
:10574000224605210C20FFF7F1FA0C20FFF720FB81
:10575000224605213A20FFF7E9FA3A20FFF718FB25
:1057600002B010BD0038024030B58FB00024019463
:10577000314B1A6B42F001021A631A6B02F00102FC
:105780000192019A02941A6B42F002021A631A6B98
:1057900002F002020292029A03941A6B42F004028F
:1057A0001A631A6B02F004020392039A04941A6BB0
:1057B00042F008021A631A6B02F008020492049A7B
:1057C00005941A6B42F010021A631A6B02F0100271
:1057D0000592059A06941A6B42F020021A631A6B1E
:1057E00002F020020692069A07941A6B42F04002D9
:1057F0001A631A6B02F040020792079A08941A6B18
:1058000042F080021A631B6B03F080030893089B2D
:105810000A4D01224FF440412846FFF7DDFB4FF4CB
:105820004043099301230A930B940C9409A9284639
:10583000FFF7E0FA0FB030BD003802400008024028
:1058400010B4044660B94FF6FF720CE02378534061
:10585000DBB2074931F8133083EA122201460134E2
:10586000481E0029F2D110465DF8044B704700BF76
:1058700030600008D8B170B50546022919D90C4628
:105880008E1E0D4B1A883146FFF7DAFFC2B2AB5DB0
:105890009A4201D0002070BDC0F30F20291911F8E1
:1058A000013C984201D0002070BD012070BD002055
:1058B0007047002070BD00BF1000002080B170B59F
:1058C000054602290BD90C468E1E064B1A88314616
:1058D000FFF7B6FFA855611EC0F30720685470BDDE
:1058E000704700BF1000002005E001784A400449DD
:1058F0008A5C194601304B1E0029F6D110467047CC
:105900003062000870B138B5054602290CD94C1E2A
:1059100077222146FFF7E8FF2B5D984214BF002055
:10592000012038BD00207047002038BD50B138B587
:105930000546022905D94C1E77222146FFF7D4FFE0
:10594000285538BD704700F17843B3F5804FC0F05B
:10595000A780A3F58043B3F5804FC0F0A38000F18A
:105960007843A3F50043B3F5804F01D2022070477E
:1059700000F17843A3F54043B3F5804F01D20320F3
:10598000704700F1774303F57F03B3F5803F01D201
:105990000420704700F1774303F57E03B3F5003F21
:1059A00001D20520704700F1774303F57C03B3F57E
:1059B000003F01D20620704700F1774303F57A03D8
:1059C000B3F5003F01D20720704700F1774303F59C
:1059D0007803B3F5003F01D20820704700F1774308
:1059E00003F57603B3F5003F5ED300F1774303F58B
:1059F0007403B3F5003F01D20A20704700F17743EA
:105A000003F57203B3F5003F50D3A0F10163B3F582
:105A1000804F4DD3A3F58043B3F5804F4AD3A0F117
:105A20000163A3F50043B3F5804F45D3A0F10163B3
:105A3000A3F54043B3F5804F40D300F1774303F51E
:105A40006F03B3F5803F3BD300F1774303F56E035B
:105A5000B3F5003F36D300F1774303F56C03B3F59C
:105A6000003F31D300F1774303F56A03B3F5003FFC
:105A70002CD300F1774303F56803B3F5003F27D338
:105A800000F1774303F56603B3F5003F22D300F13D
:105A9000774000F56400B0F5003F1DD21620704736
:105AA0000020704701207047092070470B20704785
:105AB0000C2070470D2070470E2070470F20704754
:105AC0001020704711207047122070471320704734
:105AD000142070471520704717207047014B186835
